{
  "transactions": [
    {
      "hash": "0xefc28a0e5102194fd998c6351983a79aea4dc0be1efc357b7538339d918185a2",
      "transactionType": "CALL",
      "contractName": null,
      "contractAddress": "0x970284702aaa49e2284ae3277a7838d32a65a4a5",
      "function": "mintNft(string)",
      "arguments": [
        "ipfs://QmbGrX9X8ePa9C1D7iRymzRtDADAkwzv4ZC3tXyBZhV3hy"
      ],
      "transaction": {
        "from": "0x9468eae58af6431a5fba10ca9a7313aac6afa23d",
        "to": "0x970284702aaa49e2284ae3277a7838d32a65a4a5",
        "gas": "0x35fd3",
        "value": "0x0",
        "input": "0xda86f4a900000000000000000000000000000000000000000000000000000000000000200000000000000000000000000000000000000000000000000000000000000035697066733a2f2f516d6247725839583865506139433144376952796d7a5274444144416b777a76345a4333745879425a68563368790000000000000000000000",
        "nonce": "0x84",
        "chainId": "0xaa36a7"
      },
      "additionalContracts": [],
      "isFixedGasLimit": false
    }
  ],
  "receipts": [
    {
      "status": "0x1",
      "cumulativeGasUsed": "0x136456c",
      "logs": [
        {
          "address": "0x970284702aaa49e2284ae3277a7838d32a65a4a5",
          "topics": [
            "0xddf252ad1be2c89b69c2b068fc378daa952ba7f163c4a11628f55a4df523b3ef",
            "0x0000000000000000000000000000000000000000000000000000000000000000",
            "0x0000000000000000000000009468eae58af6431a5fba10ca9a7313aac6afa23d",
            "0x0000000000000000000000000000000000000000000000000000000000000000"
          ],
          "data": "0x",
          "blockHash": "0x547f1c0086e0ad26fa44ea784a1177714b6366c756f43262c78d501b5565c668",
          "blockNumber": "0x813b52",
          "blockTimestamp": "0x683f2ddc",
          "transactionHash": "0xefc28a0e5102194fd998c6351983a79aea4dc0be1efc357b7538339d918185a2",
          "transactionIndex": "0x92",
          "logIndex": "0x154",
          "removed": false
        }
      ],
      "logsBloom": "0x00000000000000000000000000000000000000000000000000000000000000000000000000000000000000000000000000000000000000000000000000000000000000000000000000000008080000000000000000000000000000000000000000000000020000000000000000000800000000000000000000000014000800000000000000000000000000400000000000000000000000000000100000000000000000000000000000000000000000000000000000000000000000000000000000000002800000000000000000000000000000000000000000000000000020000000000000000000000000000000000000000000000000000000000000000000",
      "type": "0x2",
      "transactionHash": "0xefc28a0e5102194fd998c6351983a79aea4dc0be1efc357b7538339d918185a2",
      "transactionIndex": "0x92",
      "blockHash": "0x547f1c0086e0ad26fa44ea784a1177714b6366c756f43262c78d501b5565c668",
      "blockNumber": "0x813b52",
      "gasUsed": "0x27165",
      "effectiveGasPrice": "0xf43a1",
      "from": "0x9468eae58af6431a5fba10ca9a7313aac6afa23d",
      "to": "0x970284702aaa49e2284ae3277a7838d32a65a4a5",
      "contractAddress": null
    }
  ],
  "libraries": [],
  "pending": [],
  "returns": {},
  "timestamp": 1748970973,
  "chain": 11155111,
  "commit": "37aea32"
}