{
  "transactions": [
    {
      "hash": "0xd846b16c5153dc2a4984e631871113a3b22e0865260e6ccb60c5387b0d345b38",
      "transactionType": "CALL",
      "contractName": null,
      "contractAddress": "0xfd194d43a55e56224e5e50d23692a6fe8a15f816",
      "function": "mintNft(string)",
      "arguments": [
        "ipfs://QmbGrX9X8ePa9C1D7iRymzRtDADAkwzv4ZC3tXyBZhV3hy"
      ],
      "transaction": {
        "from": "0x9468eae58af6431a5fba10ca9a7313aac6afa23d",
        "to": "0xfd194d43a55e56224e5e50d23692a6fe8a15f816",
        "gas": "0x35fd3",
        "value": "0x0",
        "input": "0xda86f4a900000000000000000000000000000000000000000000000000000000000000200000000000000000000000000000000000000000000000000000000000000035697066733a2f2f516d6247725839583865506139433144376952796d7a5274444144416b777a76345a4333745879425a68563368790000000000000000000000",
        "nonce": "0x82",
        "chainId": "0xaa36a7"
      },
      "additionalContracts": [],
      "isFixedGasLimit": false
    }
  ],
  "receipts": [
    {
      "status": "0x1",
      "cumulativeGasUsed": "0xfcd7eb",
      "logs": [
        {
          "address": "0xfd194d43a55e56224e5e50d23692a6fe8a15f816",
          "topics": [
            "0xddf252ad1be2c89b69c2b068fc378daa952ba7f163c4a11628f55a4df523b3ef",
            "0x0000000000000000000000000000000000000000000000000000000000000000",
            "0x0000000000000000000000009468eae58af6431a5fba10ca9a7313aac6afa23d",
            "0x0000000000000000000000000000000000000000000000000000000000000000"
          ],
          "data": "0x",
          "blockHash": "0x08188dfbd332230acb4eb20ec659c0fc8cd5623c226ec1ed94dabe531a3dd60a",
          "blockNumber": "0x8135f3",
          "blockTimestamp": "0x683eed50",
          "transactionHash": "0xd846b16c5153dc2a4984e631871113a3b22e0865260e6ccb60c5387b0d345b38",
          "transactionIndex": "0xb3",
          "logIndex": "0xda",
          "removed": false
        }
      ],
      "logsBloom": "0x00000000000000000000000000000000000000000000000000000000000000000000000000000000000000000000000000000000000000000000000000000000000000000000000000000008080001000000000000000000000000000000000000000000020000000000000000000800000000000000080000000010000000000000000000000000000000400000000000000000000000000000000000000000000000000000000000000000100000000000000000000000000000000000000000000002800000000000000000000000000000000000000000000000000020000000000000000000000000000000000000000000000000000000000000000000",
      "type": "0x2",
      "transactionHash": "0xd846b16c5153dc2a4984e631871113a3b22e0865260e6ccb60c5387b0d345b38",
      "transactionIndex": "0xb3",
      "blockHash": "0x08188dfbd332230acb4eb20ec659c0fc8cd5623c226ec1ed94dabe531a3dd60a",
      "blockNumber": "0x8135f3",
      "gasUsed": "0x27165",
      "effectiveGasPrice": "0xf425a",
      "from": "0x9468eae58af6431a5fba10ca9a7313aac6afa23d",
      "to": "0xfd194d43a55e56224e5e50d23692a6fe8a15f816",
      "contractAddress": null
    }
  ],
  "libraries": [],
  "pending": [],
  "returns": {},
  "timestamp": 1748954447,
  "chain": 11155111,
  "commit": "37aea32"
}